{
  "_format": "hh-sol-artifact-1",
  "contractName": "Create",
  "sourceName": "contracts/VotingContract.sol",
  "abi": [
    {
      "inputs": [],
      "stateMutability": "nonpayable",
      "type": "constructor"
    },
    {
      "anonymous": false,
      "inputs": [
        {
          "indexed": true,
          "internalType": "uint256",
          "name": "candidateId",
          "type": "uint256"
        },
        {
          "indexed": false,
          "internalType": "string",
          "name": "name",
          "type": "string"
        },
        {
          "indexed": false,
          "internalType": "string",
          "name": "age",
          "type": "string"
        },
        {
          "indexed": false,
          "internalType": "string",
          "name": "image",
          "type": "string"
        },
        {
          "indexed": false,
          "internalType": "uint256",
          "name": "voteCount",
          "type": "uint256"
        },
        {
          "indexed": false,
          "internalType": "address",
          "name": "_address",
          "type": "address"
        },
        {
          "indexed": false,
          "internalType": "string",
          "name": "ipfs",
          "type": "string"
        }
      ],
      "name": "CandidateCreate",
      "type": "event"
    },
    {
      "anonymous": false,
      "inputs": [
        {
          "indexed": true,
          "internalType": "uint256",
          "name": "voter_voterId",
          "type": "uint256"
        },
        {
          "indexed": false,
          "internalType": "string",
          "name": "voter_name",
          "type": "string"
        },
        {
          "indexed": false,
          "internalType": "string",
          "name": "voter_image",
          "type": "string"
        },
        {
          "indexed": false,
          "internalType": "address",
          "name": "voter_address",
          "type": "address"
        },
        {
          "indexed": false,
          "internalType": "uint256",
          "name": "voter_allowed",
          "type": "uint256"
        },
        {
          "indexed": false,
          "internalType": "bool",
          "name": "voter_voted",
          "type": "bool"
        },
        {
          "indexed": false,
          "internalType": "uint256",
          "name": "voter_vote",
          "type": "uint256"
        },
        {
          "indexed": false,
          "internalType": "string",
          "name": "voter_ipfs",
          "type": "string"
        }
      ],
      "name": "VoterCreated",
      "type": "event"
    },
    {
      "inputs": [
        {
          "internalType": "uint256",
          "name": "",
          "type": "uint256"
        }
      ],
      "name": "candidateAddress",
      "outputs": [
        {
          "internalType": "address",
          "name": "",
          "type": "address"
        }
      ],
      "stateMutability": "view",
      "type": "function"
    },
    {
      "inputs": [],
      "name": "candidateId",
      "outputs": [
        {
          "internalType": "uint256",
          "name": "_value",
          "type": "uint256"
        }
      ],
      "stateMutability": "view",
      "type": "function"
    },
    {
      "inputs": [
        {
          "internalType": "address",
          "name": "",
          "type": "address"
        }
      ],
      "name": "candidates",
      "outputs": [
        {
          "internalType": "uint256",
          "name": "candidateId",
          "type": "uint256"
        },
        {
          "internalType": "string",
          "name": "age",
          "type": "string"
        },
        {
          "internalType": "string",
          "name": "name",
          "type": "string"
        },
        {
          "internalType": "string",
          "name": "image",
          "type": "string"
        },
        {
          "internalType": "uint256",
          "name": "voteCount",
          "type": "uint256"
        },
        {
          "internalType": "address",
          "name": "_address",
          "type": "address"
        },
        {
          "internalType": "string",
          "name": "ipfs",
          "type": "string"
        }
      ],
      "stateMutability": "view",
      "type": "function"
    },
    {
      "inputs": [
        {
          "internalType": "address",
          "name": "_address",
          "type": "address"
        },
        {
          "internalType": "string",
          "name": "_age",
          "type": "string"
        },
        {
          "internalType": "string",
          "name": "_name",
          "type": "string"
        },
        {
          "internalType": "string",
          "name": "_image",
          "type": "string"
        },
        {
          "internalType": "string",
          "name": "_ipfs",
          "type": "string"
        }
      ],
      "name": "setCandidate",
      "outputs": [],
      "stateMutability": "nonpayable",
      "type": "function"
    },
    {
      "inputs": [
        {
          "internalType": "address",
          "name": "_candidateAddress",
          "type": "address"
        },
        {
          "internalType": "uint256",
          "name": "_candidateVoteId",
          "type": "uint256"
        }
      ],
      "name": "vote",
      "outputs": [],
      "stateMutability": "nonpayable",
      "type": "function"
    },
    {
      "inputs": [
        {
          "internalType": "uint256",
          "name": "",
          "type": "uint256"
        }
      ],
      "name": "votedVoters",
      "outputs": [
        {
          "internalType": "address",
          "name": "",
          "type": "address"
        }
      ],
      "stateMutability": "view",
      "type": "function"
    },
    {
      "inputs": [],
      "name": "voterId",
      "outputs": [
        {
          "internalType": "uint256",
          "name": "_value",
          "type": "uint256"
        }
      ],
      "stateMutability": "view",
      "type": "function"
    },
    {
      "inputs": [
        {
          "internalType": "address",
          "name": "_address",
          "type": "address"
        },
        {
          "internalType": "string",
          "name": "_name",
          "type": "string"
        },
        {
          "internalType": "string",
          "name": "_image",
          "type": "string"
        },
        {
          "internalType": "string",
          "name": "_ipfs",
          "type": "string"
        }
      ],
      "name": "voterRight",
      "outputs": [],
      "stateMutability": "nonpayable",
      "type": "function"
    },
    {
      "inputs": [
        {
          "internalType": "address",
          "name": "",
          "type": "address"
        }
      ],
      "name": "voters",
      "outputs": [
        {
          "internalType": "uint256",
          "name": "voter_voterId",
          "type": "uint256"
        },
        {
          "internalType": "string",
          "name": "voter_name",
          "type": "string"
        },
        {
          "internalType": "string",
          "name": "voter_image",
          "type": "string"
        },
        {
          "internalType": "address",
          "name": "voter_address",
          "type": "address"
        },
        {
          "internalType": "uint256",
          "name": "voter_allowed",
          "type": "uint256"
        },
        {
          "internalType": "bool",
          "name": "voter_voted",
          "type": "bool"
        },
        {
          "internalType": "uint256",
          "name": "voter_vote",
          "type": "uint256"
        },
        {
          "internalType": "string",
          "name": "voter_ipfs",
          "type": "string"
        }
      ],
      "stateMutability": "view",
      "type": "function"
    },
    {
      "inputs": [
        {
          "internalType": "uint256",
          "name": "",
          "type": "uint256"
        }
      ],
      "name": "votersAddress",
      "outputs": [
        {
          "internalType": "address",
          "name": "",
          "type": "address"
        }
      ],
      "stateMutability": "view",
      "type": "function"
    },
    {
      "inputs": [],
      "name": "votingOrganizer",
      "outputs": [
        {
          "internalType": "address",
          "name": "",
          "type": "address"
        }
      ],
      "stateMutability": "view",
      "type": "function"
    }
  ],
  "bytecode": "0x608060405234801561001057600080fd5b5033600260006101000a81548173ffffffffffffffffffffffffffffffffffffffff021916908373ffffffffffffffffffffffffffffffffffffffff160217905550611a54806100616000396000f3fe608060405234801561001057600080fd5b50600436106100a95760003560e01c80635f74bbde116100715780635f74bbde146101665780637831ffb3146101825780638ab66a90146101b25780639f91e6bf146101e8578063a3ec138d14610206578063c91ec7121461023d576100a9565b80630361419e146100ae5780633a88251a146100ca57806343242daa146100fa57806358f17f831461012a5780635cc48aa714610148575b600080fd5b6100c860048036038101906100c39190611144565b610259565b005b6100e460048036038101906100df9190611235565b61051c565b6040516100f19190611271565b60405180910390f35b610114600480360381019061010f9190611235565b61055b565b6040516101219190611271565b60405180910390f35b61013261059a565b60405161013f919061129b565b60405180910390f35b6101506105a6565b60405161015d9190611271565b60405180910390f35b610180600480360381019061017b91906112b6565b6105cc565b005b61019c60048036038101906101979190611235565b610794565b6040516101a99190611271565b60405180910390f35b6101cc60048036038101906101c791906112f6565b6107d3565b6040516101df97969594939291906113ab565b60405180910390f35b6101f0610a55565b6040516101fd919061129b565b60405180910390f35b610220600480360381019061021b91906112f6565b610a61565b604051610234989796959493929190611451565b60405180910390f35b610257600480360381019061025291906114e4565b610c6e565b005b3373ffffffffffffffffffffffffffffffffffffffff16600260009054906101000a900473ffffffffffffffffffffffffffffffffffffffff1673ffffffffffffffffffffffffffffffffffffffff16146102e9576040517f08c379a00000000000000000000000000000000000000000000000000000000081526004016102e09061161b565b60405180910390fd5b6102f36000610ec5565b60006102ff6000610edb565b90506000600760008773ffffffffffffffffffffffffffffffffffffffff1673ffffffffffffffffffffffffffffffffffffffff1681526020019081526020016000209050600081600401541461038b576040517f08c379a0000000000000000000000000000000000000000000000000000000008152600401610382906116ad565b60405180910390fd5b60018160040181905550848160010190805190602001906103ad929190610ee9565b50838160020190805190602001906103c6929190610ee9565b50858160030160006101000a81548173ffffffffffffffffffffffffffffffffffffffff021916908373ffffffffffffffffffffffffffffffffffffffff1602179055508181600001819055506103e8816006018190555060008160050160006101000a81548160ff02191690831515021790555082816007019080519060200190610453929190610ee9565b506006869080600181540180825580915050600190039060005260206000200160009091909190916101000a81548173ffffffffffffffffffffffffffffffffffffffff021916908373ffffffffffffffffffffffffffffffffffffffff160217905550817ff5f39971dd62d9929e3a9feaa6bb77fe7c7da0001babff8a65a7e51ad0201c1986868985600401548660050160009054906101000a900460ff1687600601548a60405161050c97969594939291906116cd565b60405180910390a2505050505050565b6003818154811061052c57600080fd5b906000526020600020016000915054906101000a900473ffffffffffffffffffffffffffffffffffffffff1681565b6006818154811061056b57600080fd5b906000526020600020016000915054906101000a900473ffffffffffffffffffffffffffffffffffffffff1681565b60008060000154905081565b600260009054906101000a900473ffffffffffffffffffffffffffffffffffffffff1681565b6000600760003373ffffffffffffffffffffffffffffffffffffffff1673ffffffffffffffffffffffffffffffffffffffff16815260200190815260200160002090508060050160009054906101000a900460ff1615610661576040517f08c379a00000000000000000000000000000000000000000000000000000000081526004016106589061179d565b60405180910390fd5b6000816004015414156106a9576040517f08c379a00000000000000000000000000000000000000000000000000000000081526004016106a090611809565b60405180910390fd5b60018160050160006101000a81548160ff0219169083151502179055508181600601819055506005339080600181540180825580915050600190039060005260206000200160009091909190916101000a81548173ffffffffffffffffffffffffffffffffffffffff021916908373ffffffffffffffffffffffffffffffffffffffff1602179055508060040154600460008573ffffffffffffffffffffffffffffffffffffffff1673ffffffffffffffffffffffffffffffffffffffff16815260200190815260200160002060040160008282546107889190611858565b92505081905550505050565b600581815481106107a457600080fd5b906000526020600020016000915054906101000a900473ffffffffffffffffffffffffffffffffffffffff1681565b60046020528060005260406000206000915090508060000154908060010180546107fc906118dd565b80601f0160208091040260200160405190810160405280929190818152602001828054610828906118dd565b80156108755780601f1061084a57610100808354040283529160200191610875565b820191906000526020600020905b81548152906001019060200180831161085857829003601f168201915b50505050509080600201805461088a906118dd565b80601f01602080910402602001604051908101604052809291908181526020018280546108b6906118dd565b80156109035780601f106108d857610100808354040283529160200191610903565b820191906000526020600020905b8154815290600101906020018083116108e657829003601f168201915b505050505090806003018054610918906118dd565b80601f0160208091040260200160405190810160405280929190818152602001828054610944906118dd565b80156109915780601f1061096657610100808354040283529160200191610991565b820191906000526020600020905b81548152906001019060200180831161097457829003601f168201915b5050505050908060040154908060050160009054906101000a900473ffffffffffffffffffffffffffffffffffffffff16908060060180546109d2906118dd565b80601f01602080910402602001604051908101604052809291908181526020018280546109fe906118dd565b8015610a4b5780601f10610a2057610100808354040283529160200191610a4b565b820191906000526020600020905b815481529060010190602001808311610a2e57829003601f168201915b5050505050905087565b60018060000154905081565b6007602052806000526040600020600091509050806000015490806001018054610a8a906118dd565b80601f0160208091040260200160405190810160405280929190818152602001828054610ab6906118dd565b8015610b035780601f10610ad857610100808354040283529160200191610b03565b820191906000526020600020905b815481529060010190602001808311610ae657829003601f168201915b505050505090806002018054610b18906118dd565b80601f0160208091040260200160405190810160405280929190818152602001828054610b44906118dd565b8015610b915780601f10610b6657610100808354040283529160200191610b91565b820191906000526020600020905b815481529060010190602001808311610b7457829003601f168201915b5050505050908060030160009054906101000a900473ffffffffffffffffffffffffffffffffffffffff16908060040154908060050160009054906101000a900460ff1690806006015490806007018054610beb906118dd565b80601f0160208091040260200160405190810160405280929190818152602001828054610c17906118dd565b8015610c645780601f10610c3957610100808354040283529160200191610c64565b820191906000526020600020905b815481529060010190602001808311610c4757829003601f168201915b5050505050905088565b3373ffffffffffffffffffffffffffffffffffffffff16600260009054906101000a900473ffffffffffffffffffffffffffffffffffffffff1673ffffffffffffffffffffffffffffffffffffffff1614610cfe576040517f08c379a0000000000000000000000000000000000000000000000000000000008152600401610cf590611981565b60405180910390fd5b610d086001610ec5565b6000610d146001610edb565b90506000600460008873ffffffffffffffffffffffffffffffffffffffff1673ffffffffffffffffffffffffffffffffffffffff168152602001908152602001600020905085816001019080519060200190610d71929190610ee9565b5084816002019080519060200190610d8a929190610ee9565b5081816000018190555083816003019080519060200190610dac929190610ee9565b5060008160040181905550868160050160006101000a81548173ffffffffffffffffffffffffffffffffffffffff021916908373ffffffffffffffffffffffffffffffffffffffff16021790555082816006019080519060200190610e12929190610ee9565b506003879080600181540180825580915050600190039060005260206000200160009091909190916101000a81548173ffffffffffffffffffffffffffffffffffffffff021916908373ffffffffffffffffffffffffffffffffffffffff160217905550817fd297f12b256bb8485a6013fb5e302017018123e99a0ebb20756c09e1707b4b9086888785600401548c89604051610eb4969594939291906119a1565b60405180910390a250505050505050565b6001816000016000828254019250508190555050565b600081600001549050919050565b828054610ef5906118dd565b90600052602060002090601f016020900481019282610f175760008555610f5e565b82601f10610f3057805160ff1916838001178555610f5e565b82800160010185558215610f5e579182015b82811115610f5d578251825591602001919060010190610f42565b5b509050610f6b9190610f6f565b5090565b5b80821115610f88576000816000905550600101610f70565b5090565b6000604051905090565b600080fd5b600080fd5b600073ffffffffffffffffffffffffffffffffffffffff82169050919050565b6000610fcb82610fa0565b9050919050565b610fdb81610fc0565b8114610fe657600080fd5b50565b600081359050610ff881610fd2565b92915050565b600080fd5b600080fd5b6000601f19601f8301169050919050565b7f4e487b7100000000000000000000000000000000000000000000000000000000600052604160045260246000fd5b61105182611008565b810181811067ffffffffffffffff821117156110705761106f611019565b5b80604052505050565b6000611083610f8c565b905061108f8282611048565b919050565b600067ffffffffffffffff8211156110af576110ae611019565b5b6110b882611008565b9050602081019050919050565b82818337600083830152505050565b60006110e76110e284611094565b611079565b90508281526020810184848401111561110357611102611003565b5b61110e8482856110c5565b509392505050565b600082601f83011261112b5761112a610ffe565b5b813561113b8482602086016110d4565b91505092915050565b6000806000806080858703121561115e5761115d610f96565b5b600061116c87828801610fe9565b945050602085013567ffffffffffffffff81111561118d5761118c610f9b565b5b61119987828801611116565b935050604085013567ffffffffffffffff8111156111ba576111b9610f9b565b5b6111c687828801611116565b925050606085013567ffffffffffffffff8111156111e7576111e6610f9b565b5b6111f387828801611116565b91505092959194509250565b6000819050919050565b611212816111ff565b811461121d57600080fd5b50565b60008135905061122f81611209565b92915050565b60006020828403121561124b5761124a610f96565b5b600061125984828501611220565b91505092915050565b61126b81610fc0565b82525050565b60006020820190506112866000830184611262565b92915050565b611295816111ff565b82525050565b60006020820190506112b0600083018461128c565b92915050565b600080604083850312156112cd576112cc610f96565b5b60006112db85828601610fe9565b92505060206112ec85828601611220565b9150509250929050565b60006020828403121561130c5761130b610f96565b5b600061131a84828501610fe9565b91505092915050565b600081519050919050565b600082825260208201905092915050565b60005b8381101561135d578082015181840152602081019050611342565b8381111561136c576000848401525b50505050565b600061137d82611323565b611387818561132e565b935061139781856020860161133f565b6113a081611008565b840191505092915050565b600060e0820190506113c0600083018a61128c565b81810360208301526113d28189611372565b905081810360408301526113e68188611372565b905081810360608301526113fa8187611372565b9050611409608083018661128c565b61141660a0830185611262565b81810360c08301526114288184611372565b905098975050505050505050565b60008115159050919050565b61144b81611436565b82525050565b600061010082019050611467600083018b61128c565b8181036020830152611479818a611372565b9050818103604083015261148d8189611372565b905061149c6060830188611262565b6114a9608083018761128c565b6114b660a0830186611442565b6114c360c083018561128c565b81810360e08301526114d58184611372565b90509998505050505050505050565b600080600080600060a08688031215611500576114ff610f96565b5b600061150e88828901610fe9565b955050602086013567ffffffffffffffff81111561152f5761152e610f9b565b5b61153b88828901611116565b945050604086013567ffffffffffffffff81111561155c5761155b610f9b565b5b61156888828901611116565b935050606086013567ffffffffffffffff81111561158957611588610f9b565b5b61159588828901611116565b925050608086013567ffffffffffffffff8111156115b6576115b5610f9b565b5b6115c288828901611116565b9150509295509295909350565b7f4f6e6c79206f7267616e697a65722063616e2063726561746520766f74657200600082015250565b6000611605601f8361132e565b9150611610826115cf565b602082019050919050565b60006020820190508181036000830152611634816115f8565b9050919050565b7f566f7465722068617320616c7265616479206265656e2072656769737465726560008201527f6400000000000000000000000000000000000000000000000000000000000000602082015250565b600061169760218361132e565b91506116a28261163b565b604082019050919050565b600060208201905081810360008301526116c68161168a565b9050919050565b600060e08201905081810360008301526116e7818a611372565b905081810360208301526116fb8189611372565b905061170a6040830188611262565b611717606083018761128c565b6117246080830186611442565b61173160a083018561128c565b81810360c08301526117438184611372565b905098975050505050505050565b7f596f75206861766520616c726561647920766f74656400000000000000000000600082015250565b600061178760168361132e565b915061179282611751565b602082019050919050565b600060208201905081810360008301526117b68161177a565b9050919050565b7f596f752068617665206e6f20726967687420746f20766f746500000000000000600082015250565b60006117f360198361132e565b91506117fe826117bd565b602082019050919050565b60006020820190508181036000830152611822816117e6565b9050919050565b7f4e487b7100000000000000000000000000000000000000000000000000000000600052601160045260246000fd5b6000611863826111ff565b915061186e836111ff565b9250827fffffffffffffffffffffffffffffffffffffffffffffffffffffffffffffffff038211156118a3576118a2611829565b5b828201905092915050565b7f4e487b7100000000000000000000000000000000000000000000000000000000600052602260045260246000fd5b600060028204905060018216806118f557607f821691505b60208210811415611909576119086118ae565b5b50919050565b7f4f6e6c79206f7267616e697a65722063616e20617574686f72697a652063616e60008201527f6469646174650000000000000000000000000000000000000000000000000000602082015250565b600061196b60268361132e565b91506119768261190f565b604082019050919050565b6000602082019050818103600083015261199a8161195e565b9050919050565b600060c08201905081810360008301526119bb8189611372565b905081810360208301526119cf8188611372565b905081810360408301526119e38187611372565b90506119f2606083018661128c565b6119ff6080830185611262565b81810360a0830152611a118184611372565b905097965050505050505056fea264697066735822122087de7ad74fd501d29f3babccfad51889ed54f25131c3ae05bf2fd2c247c577e664736f6c63430008090033",
  "linkReferences": {},
  "deployedLinkReferences": {}
}